:020000000000fe
:020001003fedd1
:020002003eb608
:020003003ea31a
:020004003f6259
:020005003f4f6b
:020006003e18a2
:020007003e05b4
:0200080002d51f
:0200090002c231
:02000a00018b68
:02000b0001787a
:02000c000237b9
:02000d000224cb
:02000e0000ed03
:02000f0000da15
:020010003b04af
:020011003af1c2
:0200120039baf9
:0200130039a70b
:020014003a664a
:020015003a535c
:02001600391c93
:020017003909a5
:020018003dd9d0
:020019003dc6e2
:02001a003c8f19
:02001b003c7c2b
:02001c003d3b6a
:02001d003d287c
:02001e003bf1b4
:02001f003bdec6
:02002000044199
:02002100042eab
:0200220002f7e3
:0200230002e4f5
:0200240003a334
:02002500039046
:0200260002597d
:0200270002468f
:020028000716b9
:020029000703cb
:02002a0005cc03
:02002b0005b915
:02002c00067854
:02002d00066566
:02002e00052e9d
:02002f00051baf
:020030003f454a
:020031003f325c
:020032003dfb94
:020033003de8a6
:020034003ea7e5
:020035003e94f7
:020036003d5d2e
:020037003d4a40
:02003800021aaa
:020039000207bc
:02003a0000d0f4
:02003b0000bd06
:02003c00017c45
:02003d00016957
:02003e0000328e
:02003f00001fa0
:020040000000be
:020041003fb3cb
:020042003e502e
:020043003e037a
:0200440000f2c8
:0200450000a514
:020046003f4237
:020047003ef584
:02004800016451
:0200490001179d
:02004a003fb4c1
:02004b003f670d
:02004c0002565a
:02004d000209a6
:02004e0000a60a
:02004f00005956
:0200500039c9ac
:02005100397cf8
:0200520038195b
:0200530037cca8
:020054003abbb5
:020055003a6e01
:02005600390b64
:0200570038beb1
:020058003b2d3e
:020059003ae08b
:02005a00397dee
:02005b0039303a
:02005c003c1f47
:02005d003bd294
:02005e003a6ff7
:02005f003a2243
:020060000efc94
:020061000eafe0
:020062000d4c43
:020063000cff90
:020064000fee9d
:020065000fa1e9
:020066000e3e4c
:020067000df199
:02006800106026
:02006900101372
:02006a000eb0d6
:02006b000e6322
:02006c0011522f
:02006d0011057b
:02006e000fa2df
:02006f000f552b
:0200700008c5c1
:0200710008780d
:02007200071570
:0200730006c8bd
:0200740009b7ca
:02007500096a16
:02007600080779
:0200770007bac6
:020078000a2953
:0200790009dca0
:02007a00087903
:02007b00082c4f
:02007c000b1b5c
:02007d000acea9
:02007e00096b0c
:02007f00091e58
:0200800000007e
:020081003f44fa
:020082003e74ca
:020083003db886
:02008400026f09
:0200850001b3c5
:0200860000e395
:02008700002750
:020088003e50e8
:020089003d94a4
:02008a003cc474
:02008b003c082f
:02008c0000bfb3
:02008d0000036e
:02008e003f33fe
:02008f003e77ba
:020090003cab87
:020091003bef43
:020092003b1f12
:020093003a63ce
:020094003f1a11
:020095003e5ecd
:020096003d8e9d
:020097003cd259
:020098003afb31
:020099003a3fec
:02009a00396fbc
:02009b0038b378
:02009c003d6abb
:02009d003cae77
:02009e003bde47
:02009f003b2202
:0200a000197fc6
:0200a10018c382
:0200a20017f352
:0200a30017370d
:0200a4001bee51
:0200a5001b320c
:0200a6001a62dc
:0200a70019a698
:0200a80017cf70
:0200a90017132b
:0200aa001643fb
:0200ab001587b7
:0200ac001a3efa
:0200ad001982b6
:0200ae0018b286
:0200af0017f642
:0200b000162a0e
:0200b100156eca
:0200b200149e9a
:0200b30013e256
:0200b400189999
:0200b50017dd55
:0200b600170d24
:0200b7001651e0
:0200b800147ab8
:0200b90013be74
:0200ba0012ee44
:0200bb001232ff
:0200bc0016e943
:0200bd00162dfe
:0200be00155dce
:0200bf0014a18a
:00000001FF
