:020000000000fe
:020001000013ea
:02000200014ab1
:02000300015d9d
:02000400009e5c
:0200050000b148
:0200060001e80f
:0200070001fbfb
:020008003d2b8e
:020009003d3e7a
:02000a003e7541
:02000b003e882d
:02000c003dc9ec
:02000d003ddcd8
:02000e003f139e
:02000f003f268a
:0200100004fcee
:02001100050fd9
:020012000646a0
:0200130006598c
:02001400059a4b
:0200150005ad37
:0200160006e4fe
:0200170006f7ea
:020018000227bd
:02001900023aa9
:02001a00037170
:02001b0003845c
:02001c0002c51b
:02001d0002d807
:02001e00040fcd
:02001f000422b9
:020020003bbfe4
:020021003bd2d0
:020022003d0996
:020023003d1c82
:020024003c5d41
:020025003c702d
:020026003da7f4
:020027003dbae0
:0200280038eab4
:0200290038fda0
:02002a003a3466
:02002b003a4752
:02002c00398811
:02002d00399bfd
:02002e003ad2c4
:02002f003ae5b0
:0200300000bb13
:0200310000ceff
:020032000205c5
:020033000218b1
:02003400015970
:02003500016c5c
:0200360002a323
:0200370002b60f
:020038003de6a3
:020039003df98f
:02003a003f3055
:02003b003f4341
:02003c003e8400
:02003d003e97ec
:02003e003fceb3
:02003f003fe19f
:020040000000be
:02004100004d70
:0200420001b00b
:0200430001fdbd
:020044003f0e6d
:020045003f5b1f
:0200460000befa
:02004700010bab
:020048003e9cdc
:020049003ee98e
:02004a00004c68
:02004b0000991a
:02004c003daacb
:02004d003df77d
:02004e003f5a17
:02004f003fa7c9
:02005000063771
:02005100068423
:0200520007e7be
:0200530008346f
:02005400054560
:02005500059212
:0200560006f5ad
:0200570007425e
:0200580004d3cf
:02005900052080
:02005a0006831b
:02005b0006d0cd
:02005c0003e1be
:02005d00042e6f
:02005e0005910a
:02005f0005debc
:02006000310469
:0200610031511b
:0200620032b4b6
:02006300330167
:02006400301258
:02006500305f0a
:0200660031c2a5
:02006700320f56
:020068002fa0c7
:020069002fed79
:02006a00315013
:02006b00319dc5
:02006c002eaeb6
:02006d002efb68
:02006e00305e02
:02006f0030abb4
:02007000373b1c
:020071003788ce
:0200720038eb69
:0200730039381a
:0200740036490b
:020075003696bd
:0200760037f958
:02007700384609
:0200780035d77a
:0200790036242b
:02007a003787c6
:02007b0037d478
:02007c0034e569
:02007d0035321a
:02007e003695b5
:02007f0036e267
:0200800000007e
:0200810000bcc1
:02008200018cef
:02008300024831
:020084003d91ac
:020085003e4dee
:020086003f1d1c
:020087003fd95f
:0200880001b0c5
:02008900026c07
:02008a00033c35
:02008b0003f878
:02008c003f41f2
:02008d003ffd35
:02008e0000cda3
:02008f000189e5
:02009000035516
:02009100041158
:0200920004e187
:02009300059dc9
:0200940000e684
:0200950001a2c6
:020096000272f4
:02009700032e36
:0200980005055c
:0200990005c19f
:02009a000691cd
:02009b00074d0f
:02009c000296ca
:02009d0003520c
:02009e0004223a
:02009f0004de7d
:0200a0002681b7
:0200a100273df9
:0200a200280d27
:0200a30028c96a
:0200a400241224
:0200a50024ce67
:0200a600259e95
:0200a700265ad7
:0200a8002831fd
:0200a90028ed40
:0200aa0029bd6e
:0200ab002a79b0
:0200ac0025c26b
:0200ad00267ead
:0200ae00274edb
:0200af00280a1d
:0200b00029d64f
:0200b1002a9291
:0200b2002b62bf
:0200b3002c1e01
:0200b4002767bc
:0200b5002823fe
:0200b60028f32d
:0200b70029af6f
:0200b8002b8695
:0200b9002c42d7
:0200ba002d1205
:0200bb002dce48
:0200bc00291702
:0200bd0029d345
:0200be002aa373
:0200bf002b5fb5
:00000001FF
