:020000000000fe
:020001001fffdf
:020002000efcf2
:020003002efbd2
:0200040079c9b8
:0200050019c818
:0200060008c52b
:0200070028c40b
:02000800016491
:02000900216371
:02000a00106084
:02000b00305f64
:02000c007b2d4a
:02000d001b2caa
:02000e000a29bd
:02000f002a289d
:0200100000f2fc
:0200110020f1dc
:020012000feeef
:020013002fedcf
:020014007abbb5
:020015001aba15
:0200160009b728
:0200170029b608
:0200180002568e
:0200190022556e
:02001a00115281
:02001b00315161
:02001c007c1f47
:02001d001c1ea7
:02001e000b1bba
:02001f002b1a9a
:020020007e5010
:020021001e4f70
:020022000d4c83
:020023002d4b63
:02002400781949
:020025001818a9
:020026000715bc
:0200270027149c
:020028007fb4a3
:020029001fb303
:02002a000eb016
:02002b002eaff6
:02002c00797ddc
:02002d00197c3c
:02002e0008794f
:02002f0028782f
:020030007f420d
:020031001f416d
:020032000e3e80
:020033002e3d60
:02003400790b46
:02003500190aa6
:020036000807b9
:02003700280699
:0200380000a620
:0200390020a500
:02003a000fa213
:02003b002fa1f3
:02003c007a6fd9
:02003d001a6e39
:02003e00096b4c
:02003f00296a2c
:020040000000be
:020041001fff9f
:02004200044177
:02004300244057
:020044007b043b
:020045001b039b
:020046007f45f4
:020047001f4454
:0200480002d5df
:0200490022d4bf
:02004a00071697
:02004b00271577
:02004c007dd95c
:02004d001dd8bc
:02004e00021a94
:02004f00221974
:020050007f62cd
:020051001f612d
:0200520003a306
:0200530023a2e6
:020054007a66ca
:020055001a652a
:020056007ea783
:020057001ea6e3
:0200580002376d
:0200590022364d
:02005a00067826
:02005b00267706
:02005c007d3bea
:02005d001d3a4a
:02005e00017c23
:02005f00217b03
:020060007eb66a
:020061001eb5ca
:0200620002f7a3
:0200630022f683
:0200640079ba67
:0200650019b9c7
:020066007dfb20
:020067001dfa80
:02006800018b0a
:02006900218aea
:02006a0005ccc3
:02006b0025cba3
:02006c007c8f87
:02006d001c8ee7
:02006e0000d0c0
:02006f0020cfa0
:020070007e18f8
:020071001e1758
:02007200025931
:02007300225811
:02007400791cf5
:02007500191b55
:020076007d5dae
:020077001d5c0e
:0200780000ed99
:0200790020ec79
:02007a00052e51
:02007b00252d31
:02007c007bf116
:02007d001bf076
:02007e0000324e
:02007f0020312e
:0200800000007e
:02008100197fe5
:020082007cab55
:02008300162a3b
:020084007e50ac
:0200850017cf93
:020086007afb03
:02008700147ae9
:02008800026f05
:020089001bee6c
:02008a007f1adb
:02008b001899c2
:02008c0000bfb3
:02008d001a3e19
:02008e007d6a89
:02008f0016e970
:020090007e747c
:0200910017f363
:020092007b1fd2
:02009300149eb9
:020094007cc42a
:02009500164310
:02009600796f80
:0200970012ee67
:0200980000e383
:020099001a62e9
:02009a007d8e59
:02009b00170d3f
:02009c007f33b0
:02009d0018b297
:02009e007bde07
:02009f00155ded
:0200a0007f449b
:0200a10018c382
:0200a2007beff2
:0200a300156ed8
:0200a4007d9449
:0200a50017132f
:0200a6007a3f9f
:0200a70013be86
:0200a80001b3a2
:0200a9001b3208
:0200aa007e5e78
:0200ab0017dd5f
:0200ac0000034f
:0200ad001982b6
:0200ae007cae26
:0200af00162d0c
:0200b0007db819
:0200b1001737ff
:0200b2007a636f
:0200b30013e256
:0200b4007c08c6
:0200b5001587ad
:0200b60078b31d
:0200b700123203
:0200b80000271f
:0200b90019a686
:0200ba007cd2f6
:0200bb001651dc
:0200bc007e774d
:0200bd0017f634
:0200be007b22a3
:0200bf0014a18a
:00000001FF
