:0300000007fffff8
:0300010007fffff7
:0300020007fffff6
:0300030007fffff5
:0300040007fffff4
:0300050007fffff3
:0300060007fffff2
:0300070007fffff1
:0300080007fffff0
:0300090007ffffef
:03000a0007ffffee
:03000b0007ffffed
:03000c0007ffffec
:03000d0007ffffeb
:03000e0007ffffea
:03000f0007ffffe9
:0300100007ffffe8
:0300110007ffffe7
:0300120007ffffe6
:0300130007ffffe5
:0300140007ffffe4
:0300150007ffffe3
:0300160007ffffe2
:0300170007ffffe1
:0300180007ffffe0
:0300190007ffffdf
:03001a0007ffffde
:03001b0007ffffdd
:03001c0007ffffdc
:03001d0007ffffdb
:03001e0007ffffda
:03001f0007ffffd9
:0300200007ffffd8
:0300210007ffffd7
:0300220007ffffd6
:0300230007ffffd5
:0300240007ffffd4
:0300250007ffffd3
:0300260007ffffd2
:0300270007ffffd1
:0300280007ffffd0
:0300290007ffffcf
:03002a0007ffffce
:03002b0007ffffcd
:03002c0007ffffcc
:03002d0007ffffcb
:03002e0007ffffca
:03002f0007ffffc9
:0300300007ffffc8
:0300310007ffffc7
:0300320007ffffc6
:0300330007ffffc5
:0300340007ffffc4
:0300350007ffffc3
:0300360007ffffc2
:0300370007ffffc1
:0300380007ffffc0
:0300390007ffffbf
:03003a0007ffffbe
:03003b0007ffffbd
:03003c0007ffffbc
:03003d0007ffffbb
:03003e0007ffffba
:03003f0007ffffb9
:0300400007ffffb8
:0300410007ffffb7
:0300420007ffffb6
:0300430007ffffb5
:0300440007ffffb4
:0300450007ffffb3
:0300460007ffffb2
:0300470007ffffb1
:0300480007ffffb0
:0300490007ffffaf
:03004a0007ffffae
:03004b0007ffffad
:03004c0007ffffac
:03004d0007ffffab
:03004e0007ffffaa
:03004f0007ffffa9
:0300500007ffffa8
:0300510007ffffa7
:0300520007ffffa6
:0300530007ffffa5
:0300540007ffffa4
:0300550007ffffa3
:0300560007ffffa2
:0300570007ffffa1
:0300580007ffffa0
:0300590007ffff9f
:03005a0007ffff9e
:03005b0007ffff9d
:03005c0007ffff9c
:03005d0007ffff9b
:03005e0007ffff9a
:03005f0007ffff99
:0300600007ffff98
:0300610007ffff97
:0300620007ffff96
:0300630007ffff95
:0300640007ffff94
:0300650007ffff93
:0300660007ffff92
:0300670007ffff91
:0300680007ffff90
:0300690007ffff8f
:03006a0007ffff8e
:03006b0007ffff8d
:03006c0007ffff8c
:03006d0007ffff8b
:03006e0007ffff8a
:03006f0007ffff89
:0300700007ffff88
:0300710007ffff87
:0300720007ffff86
:0300730007ffff85
:0300740007ffff84
:0300750007ffff83
:0300760007ffff82
:0300770007ffff81
:0300780007ffff80
:0300790007ffff7f
:03007a0007ffff7e
:03007b0007ffff7d
:03007c0007ffff7c
:03007d0007ffff7b
:03007e0007ffff7a
:03007f0007ffff79
:0300800007ffff78
:0300810007ffff77
:0300820007ffff76
:0300830007ffff75
:0300840007ffff74
:0300850007ffff73
:0300860007ffff72
:0300870007ffff71
:0300880007ffff70
:0300890007ffff6f
:03008a0007ffff6e
:03008b0007ffff6d
:03008c0007ffff6c
:03008d0007ffff6b
:03008e0007ffff6a
:03008f0007ffff69
:0300900007ffff68
:0300910007ffff67
:0300920007ffff66
:0300930007ffff65
:0300940007ffff64
:0300950007ffff63
:0300960007ffff62
:0300970007ffff61
:0300980007ffff60
:0300990007ffff5f
:03009a0007ffff5e
:03009b0007ffff5d
:03009c0007ffff5c
:03009d0007ffff5b
:03009e0007ffff5a
:03009f0007ffff59
:0300a00007ffff58
:0300a10007ffff57
:0300a20007ffff56
:0300a30007ffff55
:0300a40007ffff54
:0300a50007ffff53
:0300a60007ffff52
:0300a70007ffff51
:0300a80007ffff50
:0300a90007ffff4f
:0300aa0007ffff4e
:0300ab0007ffff4d
:0300ac0007ffff4c
:0300ad0007ffff4b
:0300ae0007ffff4a
:0300af0007ffff49
:0300b00007ffff48
:0300b10007ffff47
:0300b20007ffff46
:0300b30007ffff45
:0300b40007ffff44
:0300b50007ffff43
:0300b60007ffff42
:0300b70007ffff41
:0300b80007ffff40
:0300b90007ffff3f
:0300ba0007ffff3e
:0300bb0007ffff3d
:0300bc0007ffff3c
:0300bd0007ffff3b
:0300be0007ffff3a
:0300bf0007ffff39
:0300c00007ffff38
:0300c10007ffff37
:0300c20007ffff36
:0300c30007ffff35
:0300c40007ffff34
:0300c50007ffff33
:0300c60007ffff32
:0300c70007ffff31
:0300c80007ffff30
:0300c90007ffff2f
:0300ca0007ffff2e
:0300cb0007ffff2d
:0300cc0007ffff2c
:0300cd0007ffff2b
:0300ce0007ffff2a
:0300cf0007ffff29
:0300d00007ffff28
:0300d10007ffff27
:0300d20007ffff26
:0300d30007ffff25
:0300d40007ffff24
:0300d50007ffff23
:0300d60007ffff22
:0300d70007ffff21
:0300d80007ffff20
:0300d90007ffff1f
:0300da0007ffff1e
:0300db0007ffff1d
:0300dc0007ffff1c
:0300dd0007ffff1b
:0300de0007ffff1a
:0300df0007ffff19
:0300e00007ffff18
:0300e10007ffff17
:0300e20007ffff16
:0300e30007ffff15
:0300e40007ffff14
:0300e50007ffff13
:0300e60007ffff12
:0300e70007fffe12
:0300e80007fffe11
:0300e90007fffe10
:0300ea0007fffe0f
:0300eb0007fffe0e
:0300ec0007fffe0d
:0300ed0007fffe0c
:0300ee0007fffe0b
:0300ef0007fffe0a
:0300f00007fffe09
:0300f10007fffe08
:0300f20007fffe07
:0300f30007fffe06
:0300f40007fffe05
:0300f50007fffe04
:0300f60007fffe03
:0300f70007fffe02
:0300f80007fffe01
:0300f90007fffe00
:0300fa0007fffeff
:0300fb0007fffefe
:0300fc0007fffefd
:0300fd0007fffefc
:0300fe0007fffefb
:0300ff0007fffefa
:0301000007fffef8
:0301010007fffef7
:0301020007fffef6
:0301030007fffef5
:0301040007fffef4
:0301050007fffef3
:0301060007fffef2
:0301070007fffef1
:0301080007fffef0
:0301090007fffeef
:03010a0007fffeee
:03010b0007fffeed
:03010c0007fffeec
:03010d0007fffeeb
:03010e0007fffeea
:03010f0007fffee9
:0301100007fffee8
:0301110007fffee7
:0301120007fffee6
:0301130007fffee5
:0301140007fffee4
:0301150007fffee3
:0301160007fffee2
:0301170007fffee1
:0301180007fffee0
:0301190007fffedf
:03011a0007fffede
:03011b0007fffedd
:03011c0007fffedc
:03011d0007fffedb
:03011e0007fffeda
:03011f0007fffed9
:0301200007fffed8
:0301210007fffed7
:0301220007fffed6
:0301230007fffed5
:0301240007fffed4
:0301250007fffed3
:0301260007fffed2
:0301270007fffed1
:0301280007fffed0
:0301290007fffecf
:03012a0007fffece
:03012b0007fffecd
:03012c0007fffecc
:03012d0007fffecb
:03012e0007fffeca
:03012f0007fffec9
:0301300007fffec8
:0301310007fffec7
:0301320007fffec6
:0301330007fffec5
:0301340007fffec4
:0301350007fffec3
:0301360007fffec2
:0301370007fffec1
:0301380007fffec0
:0301390007fffebf
:03013a0007fffebe
:03013b0007fffebd
:03013c0007fffebc
:03013d0007fffebb
:03013e0007fffeba
:03013f0007fffeb9
:0301400007fffeb8
:0301410007fffeb7
:0301420007fffeb6
:0301430007fffeb5
:0301440007fffeb4
:0301450007fffeb3
:0301460007fffeb2
:0301470007fffeb1
:0301480007fffeb0
:0301490007fffeaf
:03014a0007fffeae
:03014b0007fffead
:03014c0007fffeac
:03014d0007fffeab
:03014e0007fffeaa
:03014f0007fffea9
:0301500007fffea8
:0301510007fffea7
:0301520007fffea6
:0301530007fffea5
:0301540007fffea4
:0301550007fffea3
:0301560007fffea2
:0301570007fffea1
:0301580007fffea0
:0301590007fffe9f
:03015a0007fffe9e
:03015b0007fffe9d
:03015c0007fffe9c
:03015d0007fffe9b
:03015e0007fffe9a
:03015f0007fffe99
:0301600007fffe98
:0301610007fffe97
:0301620007fffe96
:0301630007fffe95
:0301640007fffe94
:0301650007fffe93
:0301660007fffe92
:0301670007fffe91
:0301680007fffe90
:0301690007fffe8f
:03016a0007fffe8e
:03016b0007fffe8d
:03016c0007fffe8c
:03016d0007fffe8b
:03016e0007fffe8a
:03016f0007fffe89
:0301700007fffe88
:0301710007fffe87
:0301720007fffe86
:0301730007fffe85
:0301740007fffe84
:0301750007fffe83
:0301760007fffe82
:0301770007fffe81
:0301780007fffe80
:0301790007fffe7f
:03017a0007fffe7e
:03017b0007fffe7d
:03017c0007fffe7c
:03017d0007fffe7b
:03017e0007fffe7a
:03017f0007fffe79
:0301800007fffe78
:0301810007fffe77
:0301820007fffe76
:0301830007fffe75
:0301840007fffe74
:0301850007fffe73
:0301860007fffe72
:0301870007fffe71
:0301880007fffe70
:0301890007fffe6f
:03018a0007fffe6e
:03018b0007fffe6d
:03018c0007fffe6c
:03018d0007fffe6b
:03018e0007fffe6a
:03018f0007fffe69
:0301900007fffd69
:0301910007fffd68
:0301920007fffd67
:0301930007fffd66
:0301940007fffd65
:0301950007fffd64
:0301960007fffd63
:0301970007fffd62
:0301980007fffd61
:0301990007fffd60
:03019a0007fffd5f
:03019b0007fffd5e
:03019c0007fffd5d
:03019d0007fffd5c
:03019e0007fffd5b
:03019f0007fffd5a
:0301a00007fffd59
:0301a10007fffd58
:0301a20007fffd57
:0301a30007fffd56
:0301a40007fffd55
:0301a50007fffd54
:0301a60007fffd53
:0301a70007fffd52
:0301a80007fffd51
:0301a90007fffd50
:0301aa0007fffd4f
:0301ab0007fffd4e
:0301ac0007fffd4d
:0301ad0007fffd4c
:0301ae0007fffd4b
:0301af0007fffd4a
:0301b00007fffd49
:0301b10007fffd48
:0301b20007fffd47
:0301b30007fffd46
:0301b40007fffd45
:0301b50007fffd44
:0301b60007fffd43
:0301b70007fffd42
:0301b80007fffd41
:0301b90007fffd40
:0301ba0007fffd3f
:0301bb0007fffd3e
:0301bc0007fffd3d
:0301bd0007fffd3c
:0301be0007fffd3b
:0301bf0007fffd3a
:0301c00007fffd39
:0301c10007fffd38
:0301c20007fffd37
:0301c30007fffd36
:0301c40007fffd35
:0301c50007fffd34
:0301c60007fffd33
:0301c70007fffd32
:0301c80007fffd31
:0301c90007fffd30
:0301ca0007fffd2f
:0301cb0007fffd2e
:0301cc0007fffd2d
:0301cd0007fffd2c
:0301ce0007fffd2b
:0301cf0007fffd2a
:0301d00007fffd29
:0301d10007fffd28
:0301d20007fffd27
:0301d30007fffd26
:0301d40007fffd25
:0301d50007fffd24
:0301d60007fffd23
:0301d70007fffd22
:0301d80007fffd21
:0301d90007fffd20
:0301da0007fffd1f
:0301db0007fffd1e
:0301dc0007fffd1d
:0301dd0007fffd1c
:0301de0007fffd1b
:0301df0007fffd1a
:0301e00007fffd19
:0301e10007fffd18
:0301e20007fffd17
:0301e30007fffd16
:0301e40007fffd15
:0301e50007fffd14
:0301e60007fffd13
:0301e70007fffd12
:0301e80007fffd11
:0301e90007fffd10
:0301ea0007fffd0f
:0301eb0007fffd0e
:0301ec0007fffd0d
:0301ed0007fffd0c
:0301ee0007fffd0b
:0301ef0007fffd0a
:0301f00007fffd09
:0301f10007fffd08
:0301f20007fffd07
:0301f30007fffd06
:0301f40007fffd05
:0301f50007fffd04
:0301f60007fffd03
:0301f70007fffd02
:0301f80007fffd01
:0301f90007fffd00
:0301fa0007fffdff
:0301fb0007fffdfe
:0301fc0007fffdfd
:0301fd0007fffdfc
:0301fe0007fffdfb
:0301ff0007fffdfa
:0302000007fffdf8
:0302010007fffdf7
:0302020007fffdf6
:0302030007fffdf5
:0302040007fffcf5
:0302050007fffcf4
:0302060007fffcf3
:0302070007fffcf2
:0302080007fffcf1
:0302090007fffcf0
:03020a0007fffcef
:03020b0007fffcee
:03020c0007fffced
:03020d0007fffcec
:03020e0007fffceb
:03020f0007fffcea
:0302100007fffce9
:0302110007fffce8
:0302120007fffce7
:0302130007fffce6
:0302140007fffce5
:0302150007fffce4
:0302160007fffce3
:0302170007fffce2
:0302180007fffce1
:0302190007fffce0
:03021a0007fffcdf
:03021b0007fffcde
:03021c0007fffcdd
:03021d0007fffcdc
:03021e0007fffcdb
:03021f0007fffcda
:0302200007fffcd9
:0302210007fffcd8
:0302220007fffcd7
:0302230007fffcd6
:0302240007fffcd5
:0302250007fffcd4
:0302260007fffcd3
:0302270007fffcd2
:0302280007fffcd1
:0302290007fffcd0
:03022a0007fffccf
:03022b0007fffcce
:03022c0007fffccd
:03022d0007fffccc
:03022e0007fffccb
:03022f0007fffcca
:0302300007fffcc9
:0302310007fffcc8
:0302320007fffcc7
:0302330007fffcc6
:0302340007fffcc5
:0302350007fffcc4
:0302360007fffcc3
:0302370007fffcc2
:0302380007fffcc1
:0302390007fffcc0
:03023a0007fffcbf
:03023b0007fffcbe
:03023c0007fffcbd
:03023d0007fffcbc
:03023e0007fffcbb
:03023f0007fffcba
:0302400007fffcb9
:0302410007fffcb8
:0302420007fffcb7
:0302430007fffcb6
:0302440007fffcb5
:0302450007fffcb4
:0302460007fffcb3
:0302470007fffcb2
:0302480007fffcb1
:0302490007fffcb0
:03024a0007fffcaf
:03024b0007fffcae
:03024c0007fffcad
:03024d0007fffcac
:03024e0007fffcab
:03024f0007fffcaa
:0302500007fffca9
:0302510007fffca8
:0302520007fffca7
:0302530007fffca6
:0302540007fffca5
:0302550007fffca4
:0302560007fffca3
:0302570007fffca2
:0302580007fffca1
:0302590007fffca0
:03025a0007fffc9f
:03025b0007fffc9e
:03025c0007fffc9d
:03025d0007fffc9c
:03025e0007fffc9b
:03025f0007fffc9a
:0302600007fffc99
:0302610007fffc98
:0302620007fffb98
:0302630007fffb97
:0302640007fffb96
:0302650007fffb95
:0302660007fffb94
:0302670007fffb93
:0302680007fffb92
:0302690007fffb91
:03026a0007fffb90
:03026b0007fffb8f
:03026c0007fffb8e
:03026d0007fffb8d
:03026e0007fffb8c
:03026f0007fffb8b
:0302700007fffb8a
:0302710007fffb89
:0302720007fffb88
:0302730007fffb87
:0302740007fffb86
:0302750007fffb85
:0302760007fffb84
:0302770007fffb83
:0302780007fffb82
:0302790007fffb81
:03027a0007fffb80
:03027b0007fffb7f
:03027c0007fffb7e
:03027d0007fffb7d
:03027e0007fffb7c
:03027f0007fffb7b
:0302800007fffb7a
:0302810007fffb79
:0302820007fffb78
:0302830007fffb77
:0302840007fffb76
:0302850007fffb75
:0302860007fffb74
:0302870007fffb73
:0302880007fffb72
:0302890007fffb71
:03028a0007fffb70
:03028b0007fffb6f
:03028c0007fffb6e
:03028d0007fffb6d
:03028e0007fffb6c
:03028f0007fffb6b
:0302900007fffb6a
:0302910007fffb69
:0302920007fffb68
:0302930007fffb67
:0302940007fffb66
:0302950007fffb65
:0302960007fffb64
:0302970007fffb63
:0302980007fffb62
:0302990007fffb61
:03029a0007fffb60
:03029b0007fffb5f
:03029c0007fffb5e
:03029d0007fffb5d
:03029e0007fffb5c
:03029f0007fffb5b
:0302a00007fffb5a
:0302a10007fffb59
:0302a20007fffb58
:0302a30007fffb57
:0302a40007fffb56
:0302a50007fffb55
:0302a60007fffb54
:0302a70007fffb53
:0302a80007fffb52
:0302a90007fffb51
:0302aa0007fffb50
:0302ab0007fffb4f
:0302ac0007fffb4e
:0302ad0007fffb4d
:0302ae0007fffb4c
:0302af0007fffb4b
:0302b00007fffb4a
:0302b10007fffb49
:0302b20007fffb48
:0302b30007fffb47
:0302b40007fffa47
:0302b50007fffa46
:0302b60007fffa45
:0302b70007fffa44
:0302b80007fffa43
:0302b90007fffa42
:0302ba0007fffa41
:0302bb0007fffa40
:0302bc0007fffa3f
:0302bd0007fffa3e
:0302be0007fffa3d
:0302bf0007fffa3c
:0302c00007fffa3b
:0302c10007fffa3a
:0302c20007fffa39
:0302c30007fffa38
:0302c40007fffa37
:0302c50007fffa36
:0302c60007fffa35
:0302c70007fffa34
:0302c80007fffa33
:0302c90007fffa32
:0302ca0007fffa31
:0302cb0007fffa30
:0302cc0007fffa2f
:0302cd0007fffa2e
:0302ce0007fffa2d
:0302cf0007fffa2c
:0302d00007fffa2b
:0302d10007fffa2a
:0302d20007fffa29
:0302d30007fffa28
:0302d40007fffa27
:0302d50007fffa26
:0302d60007fffa25
:0302d70007fffa24
:0302d80007fffa23
:0302d90007fffa22
:0302da0007fffa21
:0302db0007fffa20
:0302dc0007fffa1f
:0302dd0007fffa1e
:0302de0007fffa1d
:0302df0007fffa1c
:0302e00007fffa1b
:0302e10007fffa1a
:0302e20007fffa19
:0302e30007fffa18
:0302e40007fffa17
:0302e50007fffa16
:0302e60007fffa15
:0302e70007fffa14
:0302e80007fffa13
:0302e90007fffa12
:0302ea0007fffa11
:0302eb0007fffa10
:0302ec0007fffa0f
:0302ed0007fffa0e
:0302ee0007fffa0d
:0302ef0007fffa0c
:0302f00007fffa0b
:0302f10007fffa0a
:0302f20007fffa09
:0302f30007fffa08
:0302f40007fffa07
:0302f50007fffa06
:0302f60007fffa05
:0302f70007fffa04
:0302f80007fffa03
:0302f90007fffa02
:0302fa0007fffa01
:0302fb0007fffa00
:0302fc0007fffaff
:0302fd0007fff9ff
:0302fe0007fff9fe
:0302ff0007fff9fd
:0303000007fff9fb
:0303010007fff9fa
:0303020007fff9f9
:0303030007fff9f8
:0303040007fff9f7
:0303050007fff9f6
:0303060007fff9f5
:0303070007fff9f4
:0303080007fff9f3
:0303090007fff9f2
:03030a0007fff9f1
:03030b0007fff9f0
:03030c0007fff9ef
:03030d0007fff9ee
:03030e0007fff9ed
:03030f0007fff9ec
:0303100007fff9eb
:0303110007fff9ea
:0303120007fff9e9
:0303130007fff9e8
:0303140007fff9e7
:0303150007fff9e6
:0303160007fff9e5
:0303170007fff9e4
:0303180007fff9e3
:0303190007fff9e2
:03031a0007fff9e1
:03031b0007fff9e0
:03031c0007fff9df
:03031d0007fff9de
:03031e0007fff9dd
:03031f0007fff9dc
:0303200007fff9db
:0303210007fff9da
:0303220007fff9d9
:0303230007fff9d8
:0303240007fff9d7
:0303250007fff9d6
:0303260007fff9d5
:0303270007fff9d4
:0303280007fff9d3
:0303290007fff9d2
:03032a0007fff9d1
:03032b0007fff9d0
:03032c0007fff9cf
:03032d0007fff9ce
:03032e0007fff9cd
:03032f0007fff9cc
:0303300007fff9cb
:0303310007fff9ca
:0303320007fff9c9
:0303330007fff9c8
:0303340007fff9c7
:0303350007fff9c6
:0303360007fff9c5
:0303370007fff9c4
:0303380007fff9c3
:0303390007fff9c2
:03033a0007fff9c1
:03033b0007fff9c0
:03033c0007fff9bf
:03033d0007fff9be
:03033e0007fff9bd
:03033f0007fff9bc
:0303400007fff8bc
:0303410007fff8bb
:0303420007fff8ba
:0303430007fff8b9
:0303440007fff8b8
:0303450007fff8b7
:0303460007fff8b6
:0303470007fff8b5
:0303480007fff8b4
:0303490007fff8b3
:03034a0007fff8b2
:03034b0007fff8b1
:03034c0007fff8b0
:03034d0007fff8af
:03034e0007fff8ae
:03034f0007fff8ad
:0303500007fff8ac
:0303510007fff8ab
:0303520007fff8aa
:0303530007fff8a9
:0303540007fff8a8
:0303550007fff8a7
:0303560007fff8a6
:0303570007fff8a5
:0303580007fff8a4
:0303590007fff8a3
:03035a0007fff8a2
:03035b0007fff8a1
:03035c0007fff8a0
:03035d0007fff89f
:03035e0007fff89e
:03035f0007fff89d
:0303600007fff89c
:0303610007fff89b
:0303620007fff89a
:0303630007fff899
:0303640007fff898
:0303650007fff897
:0303660007fff896
:0303670007fff895
:0303680007fff894
:0303690007fff893
:03036a0007fff892
:03036b0007fff891
:03036c0007fff890
:03036d0007fff88f
:03036e0007fff88e
:03036f0007fff88d
:0303700007fff88c
:0303710007fff88b
:0303720007fff88a
:0303730007fff889
:0303740007fff888
:0303750007fff887
:0303760007fff886
:0303770007fff885
:0303780007fff884
:0303790007fff883
:03037a0007fff882
:03037b0007fff881
:03037c0007fff880
:03037d0007fff780
:03037e0007fff77f
:03037f0007fff77e
:0303800007fff77d
:0303810007fff77c
:0303820007fff77b
:0303830007fff77a
:0303840007fff779
:0303850007fff778
:0303860007fff777
:0303870007fff776
:0303880007fff775
:0303890007fff774
:03038a0007fff773
:03038b0007fff772
:03038c0007fff771
:03038d0007fff770
:03038e0007fff76f
:03038f0007fff76e
:0303900007fff76d
:0303910007fff76c
:0303920007fff76b
:0303930007fff76a
:0303940007fff769
:0303950007fff768
:0303960007fff767
:0303970007fff766
:0303980007fff765
:0303990007fff764
:03039a0007fff763
:03039b0007fff762
:03039c0007fff761
:03039d0007fff760
:03039e0007fff75f
:03039f0007fff75e
:0303a00007fff75d
:0303a10007fff75c
:0303a20007fff75b
:0303a30007fff75a
:0303a40007fff759
:0303a50007fff758
:0303a60007fff757
:0303a70007fff756
:0303a80007fff755
:0303a90007fff754
:0303aa0007fff753
:0303ab0007fff752
:0303ac0007fff751
:0303ad0007fff750
:0303ae0007fff74f
:0303af0007fff74e
:0303b00007fff74d
:0303b10007fff74c
:0303b20007fff74b
:0303b30007fff74a
:0303b40007fff749
:0303b50007fff748
:0303b60007fff747
:0303b70007fff647
:0303b80007fff646
:0303b90007fff645
:0303ba0007fff644
:0303bb0007fff643
:0303bc0007fff642
:0303bd0007fff641
:0303be0007fff640
:0303bf0007fff63f
:0303c00007fff63e
:0303c10007fff63d
:0303c20007fff63c
:0303c30007fff63b
:0303c40007fff63a
:0303c50007fff639
:0303c60007fff638
:0303c70007fff637
:0303c80007fff636
:0303c90007fff635
:0303ca0007fff634
:0303cb0007fff633
:0303cc0007fff632
:0303cd0007fff631
:0303ce0007fff630
:0303cf0007fff62f
:0303d00007fff62e
:0303d10007fff62d
:0303d20007fff62c
:0303d30007fff62b
:0303d40007fff62a
:0303d50007fff629
:0303d60007fff628
:0303d70007fff627
:0303d80007fff626
:0303d90007fff625
:0303da0007fff624
:0303db0007fff623
:0303dc0007fff622
:0303dd0007fff621
:0303de0007fff620
:0303df0007fff61f
:0303e00007fff61e
:0303e10007fff61d
:0303e20007fff61c
:0303e30007fff61b
:0303e40007fff61a
:0303e50007fff619
:0303e60007fff618
:0303e70007fff617
:0303e80007fff616
:0303e90007fff615
:0303ea0007fff614
:0303eb0007fff613
:0303ec0007fff612
:0303ed0007fff512
:0303ee0007fff511
:0303ef0007fff510
:0303f00007fff50f
:0303f10007fff50e
:0303f20007fff50d
:0303f30007fff50c
:0303f40007fff50b
:0303f50007fff50a
:0303f60007fff509
:0303f70007fff508
:0303f80007fff507
:0303f90007fff506
:0303fa0007fff505
:0303fb0007fff504
:0303fc0007fff503
:0303fd0007fff502
:0303fe0007fff501
:0303ff0007fff500
:00000001FF
