:03000000000000fd
:03000100000c915f
:03000200001922c0
:030003000025b223
:0300040000324384
:03000500003ed2e8
:03000600004b624a
:030007000057f0af
:0300080000647e13
:0300090000710a79
:03000a00007d96e0
:03000b00008a2048
:03000c000096a9b2
:03000d0000a3301d
:03000e0000afb68a
:03000f0000bc3bf7
:0300100000c8bd68
:0300110000d53ed9
:0300120000e1bc4e
:0300130000ee38c4
:0300140000fab23d
:0300150001072ab6
:0300160001139f34
:03001700012011b4
:03001800012c8137
:030019000138eebd
:03001a0001455746
:03001b000151bed2
:03001c00015e2161
:03001d00016a81f4
:03001e000176dd8b
:03001f0001833624
:03002000018f8bc2
:03002100019bdd63
:0300220001a82a08
:0300230001b473b2
:0300240001c0b860
:0300250001ccf912
:0300260001d935c8
:0300270001e56c84
:0300280001f19f44
:0300290001fdce08
:03002a000209f7d1
:03002b0002161b9f
:03002c0002223a73
:03002d00022e544c
:03002e00023a682b
:03002f000246770f
:03003000025280f9
:03003100025e84e8
:03003200026a82dd
:0300330002767ad8
:0300340002826bda
:03003500028e57e1
:03003600029a3cef
:0300370002a61b03
:0300380002b1f31f
:0300390002bdc540
:03003a0002c98f69
:03003b0002d55398
:03003c0002e110ce
:03003d0002ecc60c
:03003e0002f87550
:03003f0003041c9b
:03004000030fbcef
:03004100031b544a
:030042000326e5ad
:0300430003326e17
:03004400033def8a
:0300450003496804
:030046000354d987
:0300470003604112
:03004800036ba2a5
:030049000376f942
:03004a00038249e5
:03004b00038d8f93
:03004c000398cd49
:03004d0003a40207
:03004e0003af2ecf
:03004f0003ba51a0
:0300500003c56b7a
:0300510003d07c5d
:0300520003db834a
:0300530003e68041
:0300540003f17441
:0300550003fc5e4b
:0300560004073f5d
:030057000412157b
:03005800041ce1a4
:030059000427a4d5
:03005a0004325c11
:03005b00043d0958
:03005c000447acaa
:03005d0004524505
:03005e00045cd36c
:03005f00046756dd
:030060000471ce5a
:03006100047c3ce0
:0300620004869e73
:030063000490f511
:03006400049b41b9
:0300650004a5816e
:0300660004afb62e
:0300670004b9e0f9
:0300680004c3fdd1
:0300690004ce0fb3
:03006a0004d816a1
:03006b0004e2109c
:03006c0004ebfea4
:03006d0004f5e0b7
:03006e0004ffb6d6
:03006f0005097f01
:0300700005133c39
:03007100051ced7e
:03007200052691cf
:030073000530282d
:030074000539b299
:0300750005432f11
:03007600054ca096
:0300770005560328
:03007800055f5ac7
:030079000568a374
:03007a000571de2f
:03007b00057b0cf6
:03007c0005842dcb
:03007d00058d40ae
:03007e000596469e
:03007f00059f3d9d
:0300800005a827a9
:0300810005b103c3
:0300820005b9d0ed
:0300830005c29023
:0300840005cb4168
:0300850005d3e4bc
:0300860005dc791d
:0300870005e4ff8e
:0300880005ed770c
:0300890005f5e09a
:03008a0005fe3a36
:03008b00060686e0
:03008c00060ec39a
:03008d000616f163
:03008e00061f0f3b
:03008f0006271f22
:03009000062f1f19
:030091000637111e
:03009200063ef235
:030093000646c559
:03009400064e888d
:0300950006563bd1
:03009600065ddf25
:0300970006657388
:03009800066cf7fc
:0300990006746c7e
:03009a00067bd012
:03009b00068325b4
:03009c00068a6968
:03009d0006919d2c
:03009e000698c100
:03009f00069fd5e4
:0300a00006a6d9d8
:0300a10006adccdd
:0300a20006b4aef3
:0300a30006bb8019
:0300a40006c2424f
:0300a50006c8f298
:0300a60006cf92f0
:0300a70006d62258
:0300a80006dca0d3
:0300a90006e30d5e
:0300aa0006e96afa
:0300ab0006efb5a8
:0300ac0006f5ef67
:0300ad0006fc1836
:0300ae0007023016
:0300af0007083708
:0300b000070e2c0c
:0300b10007141021
:0300b2000719e249
:0300b300071fa381
:0300b400072552cb
:0300b500072aef28
:0300b60007307b95
:0300b7000735f515
:0300b800073b5ea5
:0300b9000740b449
:0300ba000745f9fe
:0300bb00074b2cc4
:0300bc0007504c9e
:0300bd0007555b89
:0300be00075a5787
:0300bf00075f4296
:0300c00007641ab8
:0300c1000768e0ed
:0300c200076d9433
:0300c3000772358c
:0300c4000776c4f8
:0300c500077b4175
:0300c600077fab06
:0300c700078402a9
:0300c8000788475f
:0300c900078c7a27
:0300ca0007909a02
:0300cb000794a7f0
:0300cc000798a1f1
:0300cd00079c8904
:0300ce0007a05e2a
:0300cf0007a42063
:0300d00007a7cfb0
:0300d10007ab6c0e
:0300d20007aef581
:0300d30007b26c05
:0300d40007b5cf9e
:0300d50007b92048
:0300d60007bc5d07
:0300d70007bf88d8
:0300d80007c29fbd
:0300d90007c5a3b5
:0300da0007c894c0
:0300db0007cb71df
:0300dc0007ce3c10
:0300dd0007d0f356
:0300de0007d397ae
:0300df0007d62819
:0300e00007d8a599
:0300e10007db0f2b
:0300e20007dd65d2
:0300e30007dfa98b
:0300e40007e1d859
:0300e50007e3f539
:0300e60007e5fd2e
:0300e70007e7f335
:0300e80007e9d451
:0300e90007eba37f
:0300ea0007ed5dc2
:0300eb0007ef0517
:0300ec0007f09882
:0300ed0007f218ff
:0300ee0007f38590
:0300ef0007f4dd36
:0300f00007f622ee
:0300f10007f754ba
:0300f20007f8729a
:0300f30007f97c8e
:0300f40007fa7296
:0300f50007fb55b1
:0300f60007fc24e0
:0300f70007fce023
:0300f80007fd877a
:0300f90007fe1be4
:0300fa0007fe9c62
:0300fb0007ff08f4
:0300fc0007ff619a
:0300fd0007ffa654
:0300fe0007ffd821
:0300ff0007fff503
:0301000007fffff7
:0301010007fff500
:0301020007ffd81c
:0301030007ffa64d
:0301040007ff6191
:0301050007ff08e9
:0301060007fe9c55
:0301070007fe1bd5
:0301080007fd8769
:0301090007fce010
:03010a0007fc24cb
:03010b0007fb559a
:03010c0007fa727d
:03010d0007f97c73
:03010e0007f8727d
:03010f0007f7549b
:0301100007f622cd
:0301110007f4dd13
:0301120007f3856b
:0301130007f218d8
:0301140007f09859
:0301150007ef05ec
:0301160007ed5d95
:0301170007eba350
:0301180007e9d420
:0301190007e7f302
:03011a0007e5fdf9
:03011b0007e3f502
:03011c0007e1d820
:03011d0007dfa950
:03011e0007dd6595
:03011f0007db0fec
:0301200007d8a558
:0301210007d628d6
:0301220007d39769
:0301230007d0f30f
:0301240007ce3cc7
:0301250007cb7194
:0301260007c89473
:0301270007c5a366
:0301280007c29f6c
:0301290007bf8885
:03012a0007bc5db2
:03012b0007b920f1
:03012c0007b5cf45
:03012d0007b26caa
:03012e0007aef524
:03012f0007ab6caf
:0301300007a7cf4f
:0301310007a42000
:0301320007a05ec5
:03013300079c899d
:030134000798a188
:030135000794a785
:0301360007909a95
:03013700078c7ab8
:03013800078847ee
:0301390007840236
:03013a00077fab91
:03013b00077b41fe
:03013c000776c47f
:03013d0007723511
:03013e00076d94b6
:03013f000768e06e
:0301400007641a37
:03014100075f4213
:03014200075a5702
:0301430007555b02
:0301440007504c15
:03014500074b2c39
:030146000745f971
:030147000740b4ba
:03014800073b5e14
:030149000735f582
:03014a0007307b00
:03014b00072aef91
:03014c0007255232
:03014d00071fa3e6
:03014e000719e2ac
:03014f0007141082
:03015000070e2c6b
:0301510007083765
:0301520007023071
:0301530006fc188f
:0301540006f5efbe
:0301550006efb5fd
:0301560006e96a4d
:0301570006e30daf
:0301580006dca022
:0301590006d622a5
:03015a0006cf923b
:03015b0006c8f2e1
:03015c0006c24296
:03015d0006bb805e
:03015e0006b4ae36
:03015f0006adcc1e
:0301600006a6d917
:03016100069fd521
:030162000698c13b
:0301630006919d65
:03016400068a699f
:03016500068325e9
:03016600067bd045
:0301670006746caf
:03016800066cf72b
:03016900066573b5
:03016a00065ddf50
:03016b0006563bfa
:03016c00064e88b4
:03016d000646c57e
:03016e00063ef258
:03016f000637113f
:03017000062f1f38
:0301710006271f3f
:03017200061f0f56
:030173000616f17c
:03017400060ec3b1
:03017500060686f5
:0301760005fe3a49
:0301770005f5e0ab
:0301780005ed771b
:0301790005e4ff9b
:03017a0005dc7928
:03017b0005d3e4c5
:03017c0005cb416f
:03017d0005c29028
:03017e0005b9d0f0
:03017f0005b103c4
:0301800005a827a8
:03018100059f3d9a
:0301820005964699
:03018300058d40a7
:0301840005842dc2
:03018500057b0ceb
:030186000571de22
:030187000568a365
:03018800055f5ab6
:0301890005560315
:03018a00054ca081
:03018b0005432ffa
:03018c000539b280
:03018d0005302812
:03018e00052691b2
:03018f00051ced5f
:0301900005133c18
:0301910005097fde
:0301920004ffb6b1
:0301930004f5e090
:0301940004ebfe7b
:0301950004e21071
:0301960004d81674
:0301970004ce0f84
:0301980004c3fda0
:0301990004b9e0c6
:03019a0004afb6f9
:03019b0004a58137
:03019c00049b4180
:03019d000490f5d6
:03019e0004869e36
:03019f00047c3ca1
:0301a0000471ce19
:0301a1000467569a
:0301a200045cd327
:0301a300045245be
:0301a4000447ac61
:0301a500043d090d
:0301a60004325cc4
:0301a7000427a486
:0301a800041ce153
:0301a90004121528
:0301aa0004073f08
:0301ab0003fc5ef4
:0301ac0003f174e8
:0301ad0003e680e6
:0301ae0003db83ed
:0301af0003d07cfe
:0301b00003c56b19
:0301b10003ba513d
:0301b20003af2e6a
:0301b30003a402a0
:0301b4000398cde0
:0301b500038d8f28
:0301b60003824978
:0301b7000376f9d3
:0301b800036ba234
:0301b9000360419f
:0301ba000354d912
:0301bb000349688d
:0301bc00033def11
:0301bd0003326e9c
:0301be000326e530
:0301bf00031b54cb
:0301c000030fbc6e
:0301c10003041c18
:0301c20002f875cb
:0301c30002ecc685
:0301c40002e11045
:0301c50002d5530d
:0301c60002c98fdc
:0301c70002bdc5b1
:0301c80002b1f38e
:0301c90002a61b70
:0301ca00029a3c5a
:0301cb00028e574a
:0301cc0002826b41
:0301cd0002767a3d
:0301ce00026a8240
:0301cf00025e8449
:0301d00002528058
:0301d1000246776c
:0301d200023a6886
:0301d300022e54a5
:0301d40002223aca
:0301d50002161bf4
:0301d6000209f724
:0301d70001fdce59
:0301d80001f19f93
:0301d90001e56cd1
:0301da0001d93513
:0301db0001ccf95b
:0301dc0001c0b8a7
:0301dd0001b473f7
:0301de0001a82a4b
:0301df00019bdda4
:0301e000018f8b01
:0301e10001833661
:0301e2000176ddc6
:0301e300016a812d
:0301e400015e2198
:0301e5000151be07
:0301e60001455779
:0301e7000138eeee
:0301e800012c8166
:0301e900012011e1
:0301ea0001139f5f
:0301eb0001072adf
:0301ec0000fab264
:0301ed0000ee38e9
:0301ee0000e1bc71
:0301ef0000d53efa
:0301f00000c8bd87
:0301f10000bc3b14
:0301f20000afb6a5
:0301f30000a33036
:0301f4000096a9c9
:0301f500008a205d
:0301f600007d96f3
:0301f70000710a8a
:0301f80000647e22
:0301f9000057f0bc
:0301fa00004b6255
:0301fb00003ed2f1
:0301fc000032438b
:0301fd000025b228
:0301fe00001922c3
:0301ff00000c9160
:03020000000000fb
:030201000ff36f89
:030202000fe6de26
:030203000fda4ec1
:030204000fcdbd5e
:030205000fc12ef8
:030206000fb49e94
:030207000fa8102d
:030208000f9b82c7
:030209000f8ef65f
:03020a000f826af6
:03020b000f75e08c
:03020c000f695720
:03020d000f5cd0b3
:03020e000f504a44
:03020f000f43c5d5
:030210000f374362
:030211000f2ac2ef
:030212000f1e4478
:030213000f11c800
:030214000f054e85
:030215000ef8d60a
:030216000eec618a
:030217000edfef08
:030218000ed37f83
:030219000ec712fb
:03021a000ebaa970
:03021b000eae42e2
:03021c000ea1df51
:03021d000e957fbc
:03021e000e892323
:03021f000e7cca88
:030220000e7075e8
:030221000e642345
:030222000e57d69e
:030223000e4b8df2
:030224000e3f4842
:030225000e33078e
:030226000e26cbd6
:030227000e1a9418
:030228000e0e6156
:030229000e023290
:03022a000df609c5
:03022b000de9e5f5
:03022c000dddc61f
:03022d000dd1ac44
:03022e000dc59863
:03022f000db9897d
:030230000dad8091
:030231000da17ca0
:030232000d957ea9
:030233000d8986ac
:030234000d7d95a8
:030235000d71a99f
:030236000d65c48f
:030237000d59e579
:030238000d4e0d5b
:030239000d423b38
:03023a000d36710d
:03023b000d2aaddc
:03023c000d1ef0a4
:03023d000d133a64
:03023e000d078b1e
:03023f000cfbe4d1
:030240000cf0447b
:030241000ce4ac1e
:030242000cd91bb9
:030243000ccd924d
:030244000cc211d8
:030245000cb6985c
:030246000cab27d7
:030247000c9fbf4a
:030248000c945eb5
:030249000c890716
:03024a000c7db771
:03024b000c7271c1
:03024c000c673309
:03024d000c5bfe49
:03024e000c50d27f
:03024f000c45afac
:030250000c3a95d0
:030251000c2f84eb
:030252000c247dfc
:030253000c198003
:030254000c0e8c01
:030255000c03a2f5
:030256000bf8c1e1
:030257000bedebc1
:030258000be31f96
:030259000bd85c63
:03025a000bcda425
:03025b000bc2f7dc
:03025c000bb85488
:03025d000badbb2b
:03025e000ba32dc2
:03025f000b98aa4f
:030260000b8e32d0
:030261000b83c448
:030262000b7962b3
:030263000b6f0b13
:030264000b64bf69
:030265000b5a7fb2
:030266000b504af0
:030267000b462023
:030268000b3c0349
:030269000b31f165
:03026a000b27ea75
:03026b000b1df078
:03026c000b14026e
:03026d000b0a2059
:03026e000b004a38
:03026f000af6810b
:030270000aecc4d1
:030271000ae3138a
:030272000ad96f37
:030273000acfd8d7
:030274000ac64e69
:030275000abcd1ef
:030276000ab36068
:030277000aa9fdd4
:030278000aa0a633
:030279000a975d84
:03027a000a8e22c7
:03027b000a84f4fe
:03027c000a7bd327
:03027d000a72c042
:03027e000a69ba50
:03027f000a60c34f
:030280000a57d941
:030281000a4efd25
:030282000a4630f9
:030283000a3d70c1
:030284000a34bf7a
:030285000a2c1c24
:030286000a2387c1
:030287000a1b014e
:030288000a1289ce
:030289000a0a203e
:03028a000a01c6a0
:03028b0009f97af4
:03028c0009f13d38
:03028d0009e90f6d
:03028e0009e0f193
:03028f0009d8e1aa
:0302900009d0e1b1
:0302910009c8efaa
:0302920009c10e91
:0302930009b93b6b
:0302940009b17835
:0302950009a9c5ef
:0302960009a22199
:03029700099a8d34
:03029800099309be
:03029900098b943a
:03029a00098430a4
:03029b00097cdb00
:03029c000975974a
:03029d00096e6384
:03029e0009673fae
:03029f0009602bc8
:0302a000095927d2
:0302a100095234cb
:0302a200094b52b3
:0302a3000944808b
:0302a400093dbe53
:0302a50009370e08
:0302a60009306eae
:0302a7000929de44
:0302a800092360c7
:0302a900091cf33a
:0302aa000916969c
:0302ab0009104bec
:0302ac00090a112b
:0302ad000903e85a
:0302ae0008fdd078
:0302af0008f7c984
:0302b00008f1d47e
:0302b10008ebf067
:0302b20008e61e3d
:0302b30008e05d03
:0302b40008daaeb7
:0302b50008d51158
:0302b60008cf85e9
:0302b70008ca0b67
:0302b80008c4a2d5
:0302b90008bf4c2f
:0302ba0008ba0778
:0302bb0008b4d4b0
:0302bc0008afb4d4
:0302bd0008aaa5e7
:0302be0008a5a9e7
:0302bf0008a0bed6
:0302c000089be6b2
:0302c1000897207b
:0302c20008926c33
:0302c300088dcbd8
:0302c40008893c6a
:0302c5000884bfeb
:0302c60008805558
:0302c700087bfeb3
:0302c8000877b9fb
:0302c90008738631
:0302ca00086f6654
:0302cb00086b5964
:0302cc0008675f61
:0302cd000863774c
:0302ce00085fa224
:0302cf00085be0e9
:0302d0000858319a
:0302d1000854943a
:0302d20008510bc5
:0302d300084d943f
:0302d400084a31a4
:0302d5000846e0f8
:0302d6000843a337
:0302d70008407864
:0302d800083d617d
:0302d900083a5d83
:0302da0008376c76
:0302db0008348f55
:0302dc000831c422
:0302dd00082f0dda
:0302de00082c6980
:0302df000829d813
:0302e00008275b91
:0302e1000824f1fd
:0302e20008229b54
:0302e30008205799
:0302e400081e28c9
:0302e500081c0be7
:0302e600081a03f0
:0302e70008180de7
:0302e80008162cc9
:0302e90008145d99
:0302ea000812a354
:0302eb000810fbfd
:0302ec00080f6890
:0302ed00080de811
:0302ee00080c7b7e
:0302ef00080b23d6
:0302f0000809de1c
:0302f1000808ac4e
:0302f20008078e6c
:0302f30008068476
:0302f40008058e6c
:0302f5000804ab4f
:0302f6000803dc1e
:0302f700080320d9
:0302f80008027980
:0302f9000801e514
:0302fa0008016494
:0302fb000800f800
:0302fc0008009f58
:0302fd0008005a9c
:0302fe00080028cd
:0302ff0008000be9
:03030000080001f1
:0303010008000be6
:03030200080028c8
:0303030008005a95
:0303040008009f4f
:030305000800f8f5
:0303060008016487
:030307000801e505
:030308000802796f
:03030900080320c6
:03030a000803dc09
:03030b000804ab38
:03030c0008058e53
:03030d000806845b
:03030e0008078e4f
:03030f000808ac2f
:030310000809defb
:03031100080b23b3
:03031200080c7b59
:03031300080de8ea
:03031400080f6867
:030315000810fbd2
:030316000812a327
:0303170008145d6a
:0303180008162c98
:0303190008180db4
:03031a00081a03bb
:03031b00081c0bb0
:03031c00081e2890
:03031d000820575e
:03031e0008229b17
:03031f000824f1be
:0303200008275b50
:030321000829d8d0
:03032200082c693b
:03032300082f0d93
:030324000831c4d9
:0303250008348f0a
:0303260008376c29
:03032700083a5d34
:03032800083d612c
:0303290008407811
:03032a000843a3e2
:03032b000846e0a1
:03032c00084a314b
:03032d00084d94e4
:03032e0008510b68
:03032f00085494db
:0303300008583139
:03033100085be086
:03033200085fa2bf
:03033300086377e5
:0303340008675ff8
:03033500086b59f9
:03033600086f66e7
:03033700087386c2
:030338000877b98a
:03033900087bfe40
:03033a00088055e3
:03033b000884bf74
:03033c0008893cf1
:03033d00088dcb5d
:03033e0008926cb6
:03033f00089720fc
:03034000089be631
:0303410008a0be53
:0303420008a5a962
:0303430008aaa560
:0303440008afb44b
:0303450008b4d425
:0303460008ba07eb
:0303470008bf4ca0
:0303480008c4a244
:0303490008ca0bd4
:03034a0008cf8554
:03034b0008d511c1
:03034c0008daae1e
:03034d0008e05d68
:03034e0008e61ea0
:03034f0008ebf0c8
:0303500008f1d4dd
:0303510008f7c9e1
:0303520008fdd0d3
:030353000903e8b3
:03035400090a1182
:0303550009104b41
:03035600091696ef
:03035700091cf38b
:0303580009236016
:030359000929de91
:03035a0009306ef9
:03035b0009370e51
:03035c00093dbe9a
:03035d00094480d0
:03035e00094b52f6
:03035f000952340c
:0303600009592711
:0303610009602b05
:0303620009673fe9
:03036300096e63bd
:0303640009759781
:03036500097cdb35
:03036600098430d7
:03036700098b946b
:03036800099309ed
:03036900099a8d61
:03036a0009a221c4
:03036b0009a9c518
:03036c0009b1785c
:03036d0009b93b90
:03036e0009c10eb4
:03036f0009c8efcb
:0303700009d0e1d0
:0303710009d8e1c7
:0303720009e0f1ae
:0303730009e90f86
:0303740009f13d4f
:0303750009f97a09
:030376000a01c6b3
:030377000a0a204f
:030378000a1289dd
:030379000a1b015b
:03037a000a2387cc
:03037b000a2c1c2d
:03037c000a34bf81
:03037d000a3d70c6
:03037e000a4630fc
:03037f000a4efd26
:030380000a57d940
:030381000a60c34c
:030382000a69ba4b
:030383000a72c03b
:030384000a7bd31e
:030385000a84f4f3
:030386000a8e22ba
:030387000a975d75
:030388000aa0a622
:030389000aa9fdc1
:03038a000ab36053
:03038b000abcd1d8
:03038c000ac64e50
:03038d000acfd8bc
:03038e000ad96f1a
:03038f000ae3136b
:030390000aecc4b0
:030391000af681e8
:030392000b004a13
:030393000b0a2032
:030394000b140245
:030395000b1df04d
:030396000b27ea48
:030397000b31f136
:030398000b3c0318
:030399000b4620f0
:03039a000b504abb
:03039b000b5a7f7b
:03039c000b64bf30
:03039d000b6f0bd8
:03039e000b796276
:03039f000b83c409
:0303a0000b8e328f
:0303a1000b98aa0c
:0303a2000ba32d7d
:0303a3000badbbe4
:0303a4000bb8543f
:0303a5000bc2f791
:0303a6000bcda4d8
:0303a7000bd85c14
:0303a8000be31f45
:0303a9000bedeb6e
:0303aa000bf8c18c
:0303ab000c03a29e
:0303ac000c0e8ca8
:0303ad000c1980a8
:0303ae000c247d9f
:0303af000c2f848c
:0303b0000c3a956f
:0303b1000c45af49
:0303b2000c50d21a
:0303b3000c5bfee2
:0303b4000c6733a0
:0303b5000c727156
:0303b6000c7db704
:0303b7000c8907a7
:0303b8000c945e44
:0303b9000c9fbfd7
:0303ba000cab2762
:0303bb000cb698e5
:0303bc000cc2115f
:0303bd000ccd92d2
:0303be000cd91b3c
:0303bf000ce4ac9f
:0303c0000cf044fa
:0303c1000cfbe44e
:0303c2000d078b99
:0303c3000d133add
:0303c4000d1ef01b
:0303c5000d2aad51
:0303c6000d367180
:0303c7000d423ba9
:0303c8000d4e0dca
:0303c9000d59e5e6
:0303ca000d65c4fa
:0303cb000d71a908
:0303cc000d7d950f
:0303cd000d898611
:0303ce000d957e0c
:0303cf000da17c01
:0303d0000dad80f0
:0303d1000db989da
:0303d2000dc598be
:0303d3000dd1ac9d
:0303d4000dddc676
:0303d5000de9e54a
:0303d6000df60918
:0303d7000e0232e1
:0303d8000e0e61a5
:0303d9000e1a9465
:0303da000e26cb21
:0303db000e3307d7
:0303dc000e3f4889
:0303dd000e4b8d37
:0303de000e57d6e1
:0303df000e642386
:0303e0000e707527
:0303e1000e7ccac5
:0303e2000e89235e
:0303e3000e957ff5
:0303e4000ea1df88
:0303e5000eae4217
:0303e6000ebaa9a3
:0303e7000ec7122c
:0303e8000ed37fb2
:0303e9000edfef35
:0303ea000eec61b5
:0303eb000ef8d633
:0303ec000f054eac
:0303ed000f11c825
:0303ee000f1e449b
:0303ef000f2ac210
:0303f0000f374381
:0303f1000f43c5f2
:0303f2000f504a5f
:0303f3000f5cd0cc
:0303f4000f695737
:0303f5000f75e0a1
:0303f6000f826a09
:0303f7000f8ef670
:0303f8000f9b82d6
:0303f9000fa8103a
:0303fa000fb49e9f
:0303fb000fc12e01
:0303fc000fcdbd65
:0303fd000fda4ec6
:0303fe000fe6de29
:0303ff000ff36f8a
:00000001FF
